:100000000C9474000C9486000C9486000C9486006A
:100010000C9486000C9486000C9486000C94D401F9
:100020000C9486000C9486000C9486000C94860038
:100030000C9486000C9486000C9486000C94860028
:100040000C9486000C9486000C9486000C94860018
:100050000C9486000C9486000C9486000C94860008
:100060000C9486000C9486000C9486000C948600F8
:100070000C9486000C9486000C9486000C948600E8
:100080000C9486000C9486000C9486000C948600D8
:100090000C9486000C9486000C9486000C948600C8
:1000A0000C9486000C9486000C9486000C948600B8
:1000B0000C9486000C9486000C9486000C948600A8
:1000C0000C9486000C9486000C9486000C94860098
:1000D0000C9486000C9486000C9486000C94860088
:1000E0000C9486000C94860011241FBECFEFCDBF68
:1000F000DFE7DEBF20E4A0E0B0E401C01D92A7333B
:10010000B207E1F70E9466010C944C040C940000C5
:100110006150710920E030E00EC0DC01A20FB31F76
:100120004C91FC01E60FF71F50815C9340832F5FD9
:100130003F4F61507109261737077CF30895CF921E
:10014000DF92EF92FF920F931F93CF93DF938A0179
:100150006901C0E0D0E011C07801EC0EFD1E2AE07C
:1001600030E040E050E00E942D04605DF7016083C4
:10017000622F732F842F952F2196611571058105AC
:10018000910551F706C0F801EC0FFD1F80E3808355
:100190002196CC15DD05BCF3BE01C8010E94880084
:1001A000F801EC0FFD1F1082CE01DF91CF911F915E
:1001B0000F91FF90EF90DF90CF900895E0E4F4E08E
:1001C00020812D7F2083208121602083BC0180E05D
:1001D00090E00E94100320E030E040E851E40E94EB
:1001E0009E039B01AC0160E074E284E79DE40E9401
:1001F0006F0220E030E040E05FE30E9403020E94D3
:10020000E102E0E2F8E0608771878681806C868396
:1002100008959091240895FFFCCF809322080895BB
:100220000F931F93CF93DF938C01C0E0D0E007C002
:10023000F801EC0FFD1F80810E9409012196F80151
:1002400001900020E9F73197E01BF10BCE17DF0793
:1002500078F38AE00E940901DF91CF911F910F91FD
:10026000089520E030E041E050E40E949F0081E0EA
:1002700090E40E941001089585E88093A000E0E0DA
:10028000F6E08DE0828385E08083089581E08093AD
:100290000A060895809308060E94460180910D0683
:1002A00080FFFCCF80911006909111060895E0E048
:1002B000FAE010A211A284E690E086A397A38081C1
:1002C0008B60808382858160828708957894E0E4E2
:1002D000F4E0808180618083808188608083E0E0B9
:1002E000F4E08081806180830E94570180E895E27C
:1002F0000E94DE000E943C010E944601C8ECD0E052
:1003000018C081E00E944A0140913340509134402E
:100310006091354070913640480F591F611D711D25
:10032000409333405093344060933540709336404F
:100330002197209731F7609133407091344080913C
:1003400035409091364028EC30E040E050E00E948B
:100350000B04209333403093344040933540509306
:100360003640CA01B9010E94310180913340909119
:100370003440A0913540B09136408D3221E0920753
:10038000A105B10528F4E0E0F4E025812061258392
:1003900084389340A105B10508F4B0CFE0E0F4E063
:1003A000868180618683AACF1F920F920FB60F922B
:1003B00011240BB60F928F939F93EF93FF9390911D
:1003C000004081E0892780930040882331F0E0E4F9
:1003D000F4E085818860858305C0E0E4F4E08681EF
:1003E00088608683E0E0FAE0838581608387FF91FF
:1003F000EF919F918F910F900BBE0F900FBE0F90BA
:100400001F9018955058BB27AA270E941A020C94D7
:1004100064030E94560338F00E945D0320F039F413
:100420009F3F19F426F40C9453030EF4E095E7FB78
:100430000C944D03E92F0E94750358F3BA17620715
:1004400073078407950720F079F4A6F50C949703B9
:100450000EF4E0950B2EBA2FA02D0B01B9019001DF
:100460000C01CA01A0011124FF27591B99F0593F23
:1004700050F4503E68F11A16F040A22F232F342F6B
:100480004427585FF3CF469537952795A795F040B9
:100490005395C9F77EF41F16BA0B620B730B840BCE
:1004A000BAF09150A1F0FF0FBB1F661F771F881F86
:1004B000C2F70EC0BA0F621F731F841F48F48795DE
:1004C00077956795B795F7959E3F08F0B0CF9395D0
:1004D000880F08F09927EE0F9795879508950E9449
:1004E00083020C9464030E945D0358F00E9456033B
:1004F00040F029F45F3F29F00C944D0351110C9406
:1005000098030C9453030E94750368F39923B1F385
:10051000552391F3951B550BBB27AA276217730729
:10052000840738F09F5F5F4F220F331F441FAA1FBD
:10053000A9F335D00E2E3AF0E0E832D09150504079
:10054000E695001CCAF72BD0FE2F29D0660F771F27
:10055000881FBB1F261737074807AB07B0E809F00D
:10056000BB0B802DBF01FF2793585F4F3AF09E3F92
:10057000510578F00C944D030C9498035F3FE4F31D
:10058000983ED4F3869577956795B795F7959F5FD5
:10059000C9F7880F911D9695879597F90895E1E021
:1005A000660F771F881FBB1F621773078407BA0780
:1005B00020F0621B730B840BBA0BEE1F88F7E095DB
:1005C00008950E947D0388F09F5798F0B92F9927CE
:1005D000B751B0F0E1F0660F771F881F991F1AF02E
:1005E000BA95C9F714C0B13091F00E949703B1E0F9
:1005F00008950C949703672F782F8827B85F39F0F8
:10060000B93FCCF3869577956795B395D9F73EF4C6
:1006100090958095709561957F4F8F4F9F4F08956E
:10062000E89409C097FB3EF490958095709561958C
:100630007F4F8F4F9F4F9923A9F0F92F96E9BB2742
:100640009395F695879577956795B795F111F8CFBE
:10065000FAF4BB0F11F460FF1BC06F5F7F4F8F4F29
:100660009F4F16C0882311F096E911C0772321F01F
:100670009EE8872F762F05C0662371F096E8862FB7
:1006800070E060E02AF09A95660F771F881FDAF70E
:10069000880F9695879597F9089597F99F6780E851
:1006A00070E060E008959FEF80EC089500240A94C4
:1006B0001616170618060906089500240A9412163D
:1006C0001306140605060895092E0394000C11F470
:1006D000882352F0BB0F40F4BF2B11F460FF04C01D
:1006E0006F5F7F4F8F4F9F4F089557FD9058440F76
:1006F000551F59F05F3F71F04795880F97FB991F81
:1007000061F09F3F79F0879508951216130614063D
:10071000551FF2CF4695F1DF08C0161617061806CA
:10072000991FF1CF86957105610508940895E894A5
:10073000BB2766277727CB0197F908950E94B1035D
:100740000C9464030E94560338F00E945D0320F06D
:10075000952311F00C944D030C94530311240C9425
:1007600098030E94750370F3959FC1F3950F50E0B5
:10077000551F629FF001729FBB27F00DB11D639F53
:10078000AA27F00DB11DAA1F649F6627B00DA11DF9
:10079000661F829F2227B00DA11D621F739FB00D9F
:1007A000A11D621F839FA00D611D221F749F33270F
:1007B000A00D611D231F849F600D211D822F762FA8
:1007C0006A2F11249F5750409AF0F1F088234AF085
:1007D000EE0FFF1FBB1F661F771F881F91505040F1
:1007E000A9F79E3F510580F00C944D030C9498039B
:1007F0005F3FE4F3983ED4F3869577956795B79578
:10080000F795E7959F5FC1F7FE2B880F911D969591
:10081000879597F90895A1E21A2EAA1BBB1BFD012B
:100820000DC0AA1FBB1FEE1FFF1FA217B307E407CF
:10083000F50720F0A21BB30BE40BF50B661F771F27
:10084000881F991F1A9469F7609570958095909507
:100850009B01AC01BD01CF010895052E97FB1EF44D
:1008600000940E94440457FD07D00E940B0407FC2B
:1008700003D04EF40C944404509540953095219546
:100880003F4F4F4F5F4F08959095809570956195BC
:0C0890007F4F8F4F9F4F0895F894FFCFCB
:00000001FF
